:1000000000260020C51B0000B16C00007D1B000015
:100010007D1B00007D1B00007D1B00000000000018
:100020000000000000000000000000001D1700009C
:100030007D1B000000000000C51600007D1B0000B5
:10004000F5170000F5170000F5170000F517000080
:10005000F5170000F5170000F5170000F517000070
:10006000F5170000F5170000F5170000F517000060
:10007000F5170000F5170000F5170000F517000050
:10008000F5170000F5170000F5170000F517000040
:10009000F5170000F5170000F5170000F517000030
:1000A000F5170000F5170000F5170000F517000020
:1000B000F5170000F5170000F5170000F517000010
:1000C000F5170000F5170000F5170000F517000000
:0C00D000F5170000F5170000F517000000
:0400DC00FFFFFFFF24
:1000E00001F0FF01102A2BDB10F0070F08D010F8E9
:1000F000013B013A8B422DD010F0070F42B3F6D1ED
:10010000F0B441EA012141EA014122F007047FF005
:1001100000070023F0E80256083C85EA010586EA5C
:10012000010685FA47F5A3FA87F586FA47F6A5FA98
:1001300087F68EB9EED1F0BC01F0FF0102F00702A4
:1001400032B110F8013B013A83EA010313B1F8D14F
:100150000020704701387047002D06BF3546033830
:10016000073815F0010F07D1013015F4807F02BF69
:10017000013015F4C03F0130F0BC0138704700BFBA
:1001800053B94AB9002908BF00281CBF4FF0FF31FE
:100190004FF0FF3000F00CB8ADF1080C6DE904CE63
:1001A00000F008F8DDF804E0DDE9022304B0704750
:1001B000704700BF2DE9F04786468C460846089EEA
:1001C000154674461946002B40F0C2808542B2FAAB
:1001D00082F245D94AB1C2F1200300FA02FC2EFA9C
:1001E00003F3954043EA0C0C94404FEA154EA8B235
:1001F000BCFBFEF8230C0EFB18CC08FB00F943EA0D
:100200000C43994528D9EB1808F1FF3704D29945DA
:1002100002D9A8F102072B44A3EB0903A4B2B3FB54
:10022000FEFC0EFB1C330CFB00F044EA0344A0422E
:1002300014D92C190CF1FF3304D2A04202D9ACF12D
:1002400002032C44241A43EA07401EB1D440002381
:1002500034607360BDE8F0874746DDE76346F1E749
:1002600092BB431B01214FEA154EAFB2B3FBFEFC1C
:10027000200C0EFB1C330CFB07F840EA03439845A7
:1002800062D9EB180CF1FF3004D2984502D9ACF1D9
:1002900002002B44A3EB0803A4B2B3FBFEFC0EFB4D
:1002A0001C330CFB07F744EA0344A7424ED92C1930
:1002B0000CF1FF3304D2A74202D9ACF102032C4463
:1002C000E41B43EA0040C0E7C2F1200320FA03F137
:1002D000954090402EFA03F303434FEA154EAFB218
:1002E000B1FBFEFC0EFB1C10190C0CFB07F841EADD
:1002F0000041884504FA02F422D969180CF1FF3054
:1003000004D2884502D9ACF102002944A1EB0801CE
:100310009BB2B1FBFEFC0EFB1C110CFB07F743EA82
:1003200001439F420ED9EB180CF1FF3104D29F42DA
:1003300002D9ACF102012B44DB1B41EA004192E7F8
:100340006046E3E76146F7E76046A3E76346B7E741
:10035000834206D916B9002108467BE7C6E900E0CA
:10036000F9E7B3FA83F78FB9834201D3724508D80E
:10037000BEEB020460EB030301209C461EB9002182
:1003800068E73846FAE7C6E9004CF8E7C7F1200C01
:10039000BB4022FA0CF41C432EFA0CF120FA0CF3A9
:1003A000B84001434FEA14490EFA07F5B3FBF9F8D8
:1003B0001FFA84FE09FB18300B0C08FB0EFA43EA07
:1003C00000439A4502FA07F240D9E31808F1FF30DA
:1003D00004D29A4502D9A8F102002344A3EB0A03F0
:1003E00089B2B3FBF9F809FB183308FB0EFE41EAAA
:1003F00003418E452CD9611808F1FF3304D28E4594
:1004000002D9A8F10203214443EA0040A0FB02986C
:10041000A1EB0E014145CE46434602D306D14D45E0
:1004200004D2B9EB020E68EB04030138002EA6D00B
:10043000B5EB0E0261EB030101FA0CFC22FA07F3A3
:100440004CEA0303F940C6E9003198E74046C5E7A6
:100450004346D9E710F8012B11F8013B012A28BFC8
:100460009A42F7D0D01A7047034613F8012B002A9E
:10047000FBD1181A013870472DE9F04F85B00646B8
:100480000F461546984683685B6802AA984700287D
:100490002FDB029CDDF80C90A5FB04AB05FB09BB30
:1004A00019A3D3E9002350465946FFF769FE0546D4
:1004B0004FF0FF335345164B73EB0B031CD3A8FBD4
:1004C00004A408FB094410A3D3E9002350462146A5
:1004D000FFF756FE03464FF0FF3252450C4AA24149
:1004E0000DD3BDF8382000922A463946304605F033
:1004F000E8FD05B0BDE8F08F6FF08500F9E76FF01B
:100500008500F6E7AFF3008000CA9A3B00000000C8
:10051000FFC99A3B08B5044805F0BFFD034A1378AC
:100520000133137008BD00BFD4920000F9170020FA
:1005300008B5044805F0B1FD034A13780133137080
:1005400008BD00BFD4920000F817002038B522483B
:1005500007F0F1FE00B938BD1F4807F0ECFE002897
:10056000F9D01D4807F0E7FE0028F4D04FF4D01171
:100570001A4805F087FD0028EDDB4FF4803118485C
:1005800005F080FD0028E6DB4FF48031154805F0CA
:1005900079FD0028DFDB104C4FF0B8620D212046BA
:1005A00005F034FD4FF0B8620E21204605F02EFD17
:1005B0000D490E4B4B604FF400538B600C4D0D4BAF
:1005C0006B604FF48043AB60204605F070FD294618
:1005D000204605F06CFDBEE7D08D0000D4920000EF
:1005E000E4920000DC920000C40C0020150500001D
:1005F000B80C00203105000008B50F4807F09BFE3D
:1006000040B10D4807F097FE50B10B4807F093FE3C
:1006100060B108BD084B1968084805F093FDF0E784
:10062000054B1968054805F08DFDEEE7024B19688A
:10063000024805F087FDECE7188E00005890000096
:1006400008B5134807F077FE78B1124805F055FD5C
:10065000011E10DB104805F050FD011E0FDB0F4896
:1006600005F04BFD011E0EDB08BD094B19680C4857
:1006700005F068FDF8E70B4805F064FDEAE70A4875
:1006800005F060FDEBE7094805F05CFDECE700BF15
:10069000008E0000689200007C92000090920000A2
:1006A0007C900000A0900000C4900000E890000042
:1006B00000B587B000230093019302930393049342
:1006C0000DF1160302930223039398421AD00328D4
:1006D0002ED0012803D0204807B05DF804FB012389
:1006E00001930C238DF810301C4883685B686946C1
:1006F0009847011E02DBBDF81600EDE7184805F02B
:1007000021FDE9E7022301930E238DF81030082321
:100710008DF81130114883685B6869469847011E5F
:1007200002DBBDF81600D7E70E4805F00BFDD3E756
:10073000802301930C238DF81030084883685B6890
:1007400069469847011E02DBBDF81600C4E706485B
:1007500005F0F8FCC0E700BF0080FFFF008E00003E
:100760000C9100003091000054910000F0B583B06E
:1007700000F0EAFE05F0EAF8754D764C764F0197E9
:10078000764E00962B462246754905F02DF80097C7
:1007900033462A462146734805F0D4FC2146724868
:1007A000FFF758FE0446002860D06A496F48FFF7FB
:1007B00051FE0446002859D066496D48FFF74AFEAD
:1007C000002857D063496B48FFF744FE002851D0FA
:1007D00060496948FFF73EFE002850D05D496748F0
:1007E000FFF738FE00284AD05A496548FFF732FE25
:1007F00028B158496348FFF72DFE002861D15449BC
:100800006148FFF727FE002841D051495F48FFF7B4
:1008100021FE00283BD04E495D48FFF71BFE002813
:1008200042D04B495B48FFF715FE00283CD04849B1
:100830005948FFF70FFE20B145495848FFF70AFE17
:10084000B0B9464808F051F9C0B2642200FB02F288
:1008500042F21071524805F043FC09E0C4EB042356
:1008600050491944504805F06DFC0134082CF5DD61
:1008700003B0F0BD4D494C4805F064FCF8E74C4B23
:100880001A784C4B19784C4805F05CFCF0E733487B
:1008900008F02BF9C0B2642200FB02F242F21071A0
:1008A000464805F01DFCE3E72C4808F01EF9C0B2ED
:1008B000642200FB02F242F21071414805F010FC84
:1008C000D6E724493F48FFF7C5FD28B121493E48F6
:1008D000FFF7C0FD002836D11D492B48FFF7BAFDB0
:1008E00008B31B492948FFF7B5FDE0B1184928486E
:1008F000FFF7B0FDF8B116492648FFF7ABFDD0B1C0
:1009000013492548FFF7A6FD28B111492348FFF7F1
:10091000A1FD0028ACD10320FFF7CAFE01462B48F9
:1009200005F010FCA4E70120FFF7C2FE01462748AE
:1009300005F008FC9CE70220FFF7BAFE01462348B9
:1009400005F000FC94E7224805F0FCFB90E700BFAF
:10095000D00E0020D00F0020D00C0020D00D0020A1
:100960007491000080910000AC910000B4910000EF
:10097000BC910000C4910000C8910000D09100001B
:10098000FC91000000920000049200000892000018
:100990000C920000109200001492000018920000C7
:1009A000A492000098000020B89100009009002057
:1009B000F8170020F9170020D4910000C49200001D
:1009C000B49200001C9200002092000024920000CB
:1009D0002892000008B5FFF7B9FDFFF70DFEFFF7FD
:1009E0002FFE00F0C9FD044805F0ACFBFFF7BEFE8A
:1009F000642005F08FFBF9E74092000008B5024B38
:100A00001B68984708BD00BFC8090020014B18604B
:100A1000704700BFC809002000B583B002460B46EE
:100A200000210091024800F089F903B05DF804FB51
:100A3000FD0900002DE9F04383B004460846154641
:100A4000238B13F0080F05D103F007060023009352
:100A5000019355E0012909D043F02003238385F356
:100A60001188BFF36F8F03B0BDE8F08343F010032C
:100A70002383F4E7204605F0ACFD43E0D4F814905E
:100A80004A466946204605F0BDFD4FF00008238B1D
:100A900003F00707B74269D0A268002A66D0012296
:100AA00043F00803238385F31188BFF36F8F002A77
:100AB00064D1009B2BB14B463A466946204605F06F
:100AC0001AFEB8F1000F02D034492046C0474FF05B
:100AD0002003EFF3118583F31288BFF36F8F238B0D
:100AE00023F008032383238B13F0100F4CD023F043
:100AF000100323830120268B06F007060028AED0C2
:100B00000228B7D00028AAD0013804282AD801A387
:100B100053F820F07D0A0000650B0000290B00004F
:100B20003D0B0000510B00002369D3F80080062123
:100B3000204605F024FD4FF00009A8E72369D3F80B
:100B400004800421204605F01AFD4FF000099EE7BD
:100B50002369D3F808800521204605F010FD4FF0E9
:100B6000000994E74FF00008C14690E7009A0AB1E7
:100B7000002295E7B8F1000F92D1B4E74A46394612
:100B8000204605F004FD94E713F0200F04D023F075
:100B9000200323830220AEE70020ACE72567000096
:100BA00084460268002006E000EB8000013203EB7F
:100BB0004003A3F1300013780349C95C11F0040F1E
:100BC000F2D1CCF8002070475596000084460846C4
:100BD000012226E09CF8003043F004038CF800303A
:100BE000F2B101301CE09CF8003043F008038CF8AF
:100BF0000030F5E79CF8003043F010038CF800302B
:100C0000EEE79CF8003043F020038CF80030E7E773
:100C10009CF8003043F040038CF80030E0E70022FD
:100C200042B30378203B102BF9D801A151F823F0EF
:100C3000F50B00001F0C00001F0C0000030C00004F
:100C40001F0C00001F0C00001F0C00001F0C0000F8
:100C50001F0C00001F0C00001F0C0000E70B000021
:100C60001F0C0000D50B00001F0C00001F0C000023
:100C7000110C00009CF8003003F04403442B00D01A
:100C800070479CF800306FF386138CF80030F7E75C
:100C90002DE9F84F05460C46934699460A9FD078B1
:100CA000254B13F800A00AF0030A05F066FF06467C
:100CB00015E0BAF1010F20D0D2B25732D2B207F804
:100CC000012D3246434628462146FFF759FAB542E0
:100CD00074F1000415D34F4513D905460C464FF067
:100CE00000083246434628462146FFF749FA092ABA
:100CF000DFD8D2B23032D2B2E1E7D2B23732D2B29A
:100D0000DDE79BF8003013F0200F03D0082E04D04D
:100D1000102E09D03846BDE8F88F9BF8023043F01A
:100D200008038BF80230F5E79BF8023043F010031C
:100D30008BF80230EEE700BF559600002DE9F04F2A
:100D400091B006460D4691460393002499F80000A1
:100D5000002800F0B982252808D009F101092946A8
:100D6000B0470028C0F2B1820134EFE700230493BA
:100D700005930693079308930993494606A805F03F
:100D8000DAFE02909DF8193013F0010F00F0978001
:100D9000039B1A1D03921F68002FC0F288809DF8E4
:100DA000193013F0040F00F09C80039B1A1D03926E
:100DB000D3F800A0BAF1000FC0F28A800023079395
:100DC00008939DF81A3003F007039DF81910C1F33A
:100DD000C301012B00F08E80022B00F0D380042B86
:100DE00000F02481032B00F03B819DF8188018F05F
:100DF000030B40F03B819DF81B30253B532B00F249
:100E0000CA81DFE813F04001C801C801C801C80168
:100E1000C801C801C801C801C801C801C801C8018A
:100E2000C801C801C801C801C801C801C801C8017A
:100E3000C801C801C801C801C801C801C801C8016A
:100E4000C801C801C801C801C801C801C801C8015A
:100E5000C801C801C801C801C801C801C801C8014A
:100E6000C801C801C801C801C801C8018101C80181
:100E7000C801C801C801C801C801C801C801C8012A
:100E8000C8015E016701C801C801C801C801670146
:100E9000C801C801C801C801BD018101A101C80183
:100EA000C8014D01C8018101C801C80181019DF837
:100EB000183043F004038DF818307F426FE79DF936
:100EC0001830002B02DB4FF0FF3768E7079F66E71B
:100ED0009DF819306FF341038DF819304FF0FF3A48
:100EE0006CE713F0020F02D0DDF820A066E74FF0A8
:100EF000FF3A63E7CB1E042B04D8DFE803F00B1D99
:100F000029353500039B1A1D03921B68DA170493D9
:100F1000059206E0039B1A1D03921B68DA170493DF
:100F20000592012928D002297FF45FAFBDF9103066
:100F3000DA170493059258E7039B073323F007035E
:100F400003F108020392D3E90023CDE90423E8E783
:100F5000039B073323F0070303F108020392D3E94D
:100F60000023CDE90423DCE7039B1A1D03921B68D1
:100F7000DA1704930592D4E79DF91030DA17049339
:100F8000059232E7CB1E042B04D8DFE803F00B1FD9
:100F900035414100039B1A1D03921B6804930023F3
:100FA00005931EE09DF81B30632B07D0039B1A1D91
:100FB00003921B6804930023059312E0039B1A1D00
:100FC00003921B680493002305930AE0039B0733F5
:100FD00023F0070303F108020392D3E90023CDE9CC
:100FE000042301291CD002297FF4FFAEBDF8103084
:100FF000049300230593F8E6039B073323F00703CC
:1010000003F108020392D3E90023CDE90423E8E7C2
:10101000039B1A1D03921B68049300230593E0E7CA
:101020009DF81030049300230593DEE608290BD0C9
:10103000039B073323F0070303F108020392D3E96C
:101040000023CDE90423D0E6039B073323F00703F5
:1010500003F108020392D3E90023CDE90423C4E697
:10106000039B1A1D03921B680493BEE6029F3B4636
:101070004A462946304605F0B4FD0028C0F22581D5
:101080000444B94662E629462520B0470028C0F24C
:101090001C810134D8460DF13E0A4FF000097FE073
:1010A000DDF81090BAF1000F06DA4846FFF7DCF9D8
:1010B00009EB000AD84673E05146484607F044FD64
:1010C000F6E7049B8DF82830D8460DF1290A0DF17A
:1010D000280965E018F0080F05D118F0100804D0B1
:1010E0004FF0200801E04FF02B08049A059B002BDD
:1010F00002DB0492059308E0524263EB430304923F
:1011000005934FF02D0800E0D8460DF13E03009303
:101110000AAB06AADDE90401FFF7BAFD8146BAF180
:10112000000F6CDB0DF13E03A3EB09039DF81820C3
:101130006FF386128DF818209A4563D9AAEB030342
:1011400007930DF13E0A2BE0049828B9D846DFF842
:1011500080A1AAF1050923E00DF13E0300930AAB3B
:1011600006AA0021FFF794FD81469DF81A3043F04E
:1011700010038DF81A3078238DF81B30D846CEE74F
:101180002246049906A805F00DFDD8460DF13E0A49
:101190004FF0000904E0D8460DF13E0A4FF0000977
:1011A000B9F1000F00F08D80AAEB0902B8F1000F31
:1011B00000D001329DF81A1011F0100F25D0023224
:1011C000079B134411F0400F01D0089A1344002FDD
:1011D00031DDFF1A9DF8183013F0040F2BD113F0F6
:1011E000400F17D0B8F1000F17D029464046B0473E
:1011F00000286ADB0134D8464FF0300B0FE00DF1C8
:101200003E0ACDE70DF13E0ACAE711F0080FD7D02C
:101210000132D5E74FF0200B01E04FF0300B3B4699
:101220005F1E002B07DD29465846B04700284CDBDF
:1012300001343B46F4E7B8F1000F05D0294640469B
:10124000B047002841DB01349DF81A30C3F3001287
:10125000C3F3C0031A4305D029463020B047002805
:1012600033DB01349DF81A3013F0100F06D02946F5
:101270009DF81B00B047002827DB0134079B03F1D2
:10128000FF38002B07DD29463020B04700281CDB43
:1012900001344346F3E753464A462946304605F0B3
:1012A000A0FC002811DB0444002F07DD2946202084
:1012B000B047002809DB0134013FF5E7DDF808906D
:1012C00044E5DDF8089041E5204611B0BDE8F08F17
:1012D0000593000002F0D8B970B505464FF0200321
:1012E000EFF3118683F31288BFF36F8F0E4B1C68E8
:1012F0000DE0A2683AB10D4B1B7C03EB43030C4994
:1013000011F8230090472346246804B123B12CB17F
:10131000002DEED06268EDE71C46F8E786F31188F1
:10132000BFF36F8F70BD00BFE8100020B017002022
:10133000DC10002008B5064B23B14178007805F099
:101340007CFD08BD002383F31188BFF36F8FF8E79E
:101350003B6E000070B50E4B1C7C21460D4805F01D
:101360005BFC00B970BD650004EB44000A4E06EB5F
:101370008000FFF7DFFF0020FFF7AEFF2B19990079
:1013800006EB8303002272505A609A60EAE700BFBE
:10139000B0170020F0100020DC100020F8B5054642
:1013A000384B1C7C4FF02003EFF3118683F3128837
:1013B000BFF36F8F04EB4402334B13F82230002B42
:1013C00039D0324B03EB820C2F4F4FEA820E07EBE2
:1013D000820393E807008CE80700002307F80E302B
:1013E00086F31188BFF36F8F04EB4403274A12F88A
:1013F0002330002B44D0B5F1FF3F2BD103F0E2FBAB
:101400000120FFF769FF2146214805F021FC214B0F
:101410005BB11E4A04EB440302EB830304EB440478
:10142000597812F8240005F000FDFFF793FF03F050
:10143000B5FD0120F8BD0146204600F031F8002836
:10144000CED004EB4401114B03EB810307C883E8C2
:101450000700C5E704EB44020C4B03EB82039868DA
:10146000410CC0030C4BC0180C4A4FF0000341F173
:101470000001FEF785FE0121281A02F09BF8BDE766
:101480000020D7E7B0170020D0100020DC1000208B
:10149000F01000202B6E00003F420F0040420F0072
:1014A0002DE9F04182B00E4601A900F045F8441E36
:1014B00024B207E0B6F1FF3F33D08044B04530D9C5
:1014C000013C24B2002C2BDB019B04EB440203EB18
:1014D0008205697813F8220005F0CDFB0028EFD1D2
:1014E0006868410CC003114FC019114A4FF0000346
:1014F00041F10001FEF744FE8046AB68590CDB0366
:10150000D8190B4A4FF0000341F10001FEF738FEF5
:10151000084B1B68B3F1FF3FCCD08342CAD8CFE75A
:101520000025284602B0BDE8F08100BF3F420F0011
:1015300040420F00CC09002008B9024B0B6000208C
:10154000704700BF0C93000008B5084B196811B133
:10155000074806F0F4FF4FF0FF324FF0FF33054825
:1015600003F022FA014B1860053008BDF41000208A
:10157000F40A0020040B002010B5002408E004EB5E
:101580000412D30006491944064806F0D8FF013476
:10159000012CF4D900220449024801F0BDFA10BD23
:1015A000F8100020F40A0020040B0020014910224A
:1015B0000A60704710ED00E072B6404080F3118879
:1015C000BFF36F8FBFF34F8F30BF62B6BFF36F8F24
:1015D000704700BF72B6494081F31188BFF34F8F47
:1015E00020BF80F3118862B6704700BF002807DB78
:1015F00000F01F02400901239340024A42F82030C4
:10160000704700BF00E100E0002808DB4901C9B2D3
:1016100000F1604000F5614080F80013704700F071
:101620000F004901C9B2014B1954704714ED00E095
:101630004209054B53F8222000F01F00012303FA52
:1016400000F01040704700BF00E100E030BFFFF73E
:10165000FDBF00BF08B50B4B0B4A22F07F029A601A
:10166000BFF34F8FBFF36F8FD3F8882022F470023F
:10167000C3F8882002F038FF03F0E4FD00F088FA98
:1016800002F090FF00ED00E0000000000A4A9368BD
:10169000C3F8A80009490968C3F8AC1008494B68A9
:1016A00043F080534B60002383F31188BFF36F8FA7
:1016B0009368D3F8AC007047B017002094950000F1
:1016C00000ED00E013498A684FF030001044EFF35A
:1016D000098C80E8F01F202080F31288BFF36F8F01
:1016E0000D4F4FF000668A698A603E60D2F8A8000C
:1016F0000023C2F8A83080F3118804B5104600F02A
:10170000F7FABDE8044002F1300090E8F01F8CF3D6
:1017100009887047B017002004ED00E01EF0040FA8
:101720000CBFEFF30880EFF30980816911F8021C08
:101730000229FFD001B505F0A4FA01BD10B4A2F151
:1017400020040E4942F8081C21F0010142F8081C4F
:1017500042F8203C019B42F81C3C029B42F8183C9A
:10176000039B42F8143C4FF0807342F8043C04653C
:101770000023C0F8A83010BC704700BF61610000B2
:10178000104B9B68BBB110F1160F0BD0D3F898200B
:10179000A2F1400C844510D8824210D98A4207D861
:1017A00000207047D3F898208A4201D80020704763
:1017B000D3F8980070470020704700207047002041
:1017C000704700BFB017002008B50D461446084BFF
:1017D000986000F08DFA204685F30988002163B6F1
:1017E00081F31188BFF36F8F0022002304F0B8FC4F
:1017F000B017002001B572B60B4A506900281EBF11
:101800000021516106F0F1FD62B6EFF30580A0F111
:1018100010004FEAC0000549014409C99847BDE8D6
:101820000140034908470000B0170020308E000037
:1018300035180000044B99689869884203D0034921
:101840004FF080520A607047B017002004ED00E0AE
:1018500038B51546204B9B6A13F4805F19D11624C6
:101860001D4B9B6A13F4006F00D018241A4B9B6A1F
:1018700013F4007F10D0184B9A6B9B6A13F4004F3F
:1018800009D0D9B1144A936A23F40043936219240E
:1018900002E01724E4E719240F4B9B6A13F4806FCE
:1018A00000D01A240C4B9B6A13F4807F08D10A4B9A
:1018B0009B6A13F4005F04D01C2402E01924EBE7B8
:1018C0001B24054A936A43F47F439362012105F088
:1018D000F5F92870204638BD00ED00E0174B9B6AF3
:1018E00013F0007F25D11D20144B9B6A13F0807FDD
:1018F00000D01F20114B9B6A13F4002F00D0212031
:101900000E4B9B6A13F4802F00D022200B4B9B6A56
:1019100013F4003F00D02320084B9B6A13F4803F50
:1019200009D1064A936A6FEA03436FEA134393624D
:1019300070471E20D8E72420F3E700BF00ED00E049
:1019400081690D4B5A6942F480725A61BFF34F8F1F
:10195000BFF36F8F31F8021C5A6922F480725A610A
:10196000BFF34F8FBFF36F8F4DF60273994201D0D3
:10197000002070470120704700ED00E070B504467C
:101980001646324B9B6A13F0100F1AD110252F4BBD
:101990009B6A13F0080F00D012252C4B9B6A13F0A2
:1019A000020F10D0294B586B9B6A13F0800F3DD06B
:1019B00000293FD0254A936A23F0800393621325C0
:1019C00003E01125E3E76FF01500204B9B6A13F04D
:1019D000010F00D014251D4B9B6A13F0200F00D07F
:1019E00015251A4B9B6A13F0100F04D1174B9B6AF5
:1019F00013F0020F04D0154B5B6813F4006F1BD17A
:101A0000124B9B6A13F0200F04D0104A536A23F440
:101A1000005353620D4A936A43F0FF03936201211E
:101A2000204605F04BF93070284670BD6FF0150068
:101A30001325CAE71325C8E72146FFF7A1FE0028B2
:101A4000DED080F309880225DAE700BF00ED00E070
:101A500038B5054600230B701A4BD86A10F0020007
:101A60002DD10C46DB6A002B2ADB164BD86A10F00E
:101A7000804025D02846FFF763FF08B128681FE0A3
:101A8000104B9B6A13F0FF0F0DD10E4B986A10F4A8
:101A90007F400ED10B4B9B6AB3F5803F10D3284695
:101AA000FFF71CFF0CE0224601212846FFF766FFE6
:101AB00006E0224601212846FFF7CAFE00E000208A
:101AC00038BD00BF00ED00E030B58BB00C46264BB2
:101AD0005968C1F30801002383F31188BFF36F8FA6
:101AE00002F07F43B3F17F4F15D102F00C03082BB6
:101AF00014D012F0080F0BD000250DF1270220465C
:101B000005F0E1F886469DF8273053B10BB030BDA3
:101B100004460125F1E700252C46EEE700252C467A
:101B2000EBE70DF1040C20686168A268E368ACE89B
:101B30000F0020696169A269E369ACE80F0045B153
:101B4000C3F308025AB96FEA53236FEA4323089399
:101B500005E0089B23F4FF7323F00103089301A918
:101B6000704605F08AF8D1E700ED00E0024A5369BB
:101B700043F010035361704700ED00E0EFF308807D
:101B8000EFF3098101B57246FFF79EFF01BD00BF6B
:101B9000002206E003F00F030949194420230B76C5
:101BA0000132262A0ADC53B2002BF3DB03F1604337
:101BB00003F56143202183F80013F1E7704700BF6C
:101BC000FCEC00E0002013490870002080F314882A
:101BD000BFF36F8FFFF77EFB00200F490860BFF354
:101BE0004F8F0E4880F3088800F030F8202080F3F3
:101BF00011880B484FF40461401880F30988EFF313
:101C000014800221084380F31488BFF36F8FFFF71D
:101C100021FD00000218002094ED00E000260020C5
:101C200040180020084BD3F89000C0F30720002391
:101C300006E0054AC2F898300021C2F8A01001332E
:101C40008342F6DB704700BF00ED00E010B572B6CE
:101C5000002484F31388FFF7E5FF234608E003F12F
:101C600020010E4A4FF0FF3042F821000133DBB271
:101C7000072BF4D9002308E003F16001074A4FF075
:101C8000FF3042F821000133DBB2072BF4D962B6F2
:101C9000BFF34F8FBFF36F8F10BD00BF00E100E0B7
:101CA00008B50A4B9B68834202D003F093FA08BD43
:101CB000EFF30583002BF8D0054B5A6842F08052B1
:101CC0005A605A6A22F400425A62EEE7B0170020C6
:101CD00000ED00E008B5034B034A0121034805F07D
:101CE00078F808BD00000120000000200C930000DF
:101CF00008B5D0F89830403B044803604023436067
:101D0000034B8360012105F068F808BD081200202C
:101D100000000B15084AC2F898000B6823F01F0357
:101D2000034343F01003C2F89C308B6843F0010377
:101D3000C2F8A030704700BF00ED00E010B5034CC2
:101D40000123227805F01DF8207010BDFA1700203D
:101D500008B50023094A127805F013F810F1160FA0
:101D60000AD0034606E0064AC2F898300021C2F8BD
:101D7000A0100133072BF6DD08BD00BFFA170020C5
:101D800000ED00E0044B0522C3F89420BFF34F8F11
:101D9000BFF36F8F704700BF00ED00E0BFF35F8FB0
:101DA000024B0022C3F89420704700BF00ED00E012
:101DB00038B50E4B1D68082D15D8FFF7EFFF00242E
:101DC00009E00A4B596804EB440293001944204689
:101DD000FFF7A0FF0134A542F3D8054B1D70FFF7B4
:101DE000D1FF002038BD4FF0FF30FBE71C9300000F
:101DF000FA170020014B1860704700BFD00900207F
:101E00000246084B1968084BC8180A44C3F100532E
:101E100003F580339A4202D2024B1A6070474FF0AA
:101E2000FF3070471412002040260020BFF34F8F70
:101E30000549CA6802F4E062044B1343CB60BFF368
:101E40004F8F00BFFDE700BF00ED00E00400FA0582
:101E50004FF02003EFF3118283F31288BFF36F8FEB
:101E600001230649C1F840354FF08041C1F878356B
:101E700082F31188BFF36F8F0020704700E00140AC
:101E800030B108B5034B800143F00103984708BD0A
:101E9000704700BF5090000070B582B000230093DF
:101EA000CDF803300D7905F01F05072D00F286806F
:101EB0000C460B780B2B00F28480DFE803F0090658
:101EC0001115821982821D21822501238DF802308D
:101ED0006378032B1CD0042B1DD06FF015005BE042
:101EE00002238DF80230F3E703238DF80230EFE789
:101EF00004238DF80230EBE705238DF80230E7E785
:101F000006238DF80230E3E707238DF80230DFE780
:101F100001238DF803306388002B3FD044F2280260
:101F2000934251D844F20302934250D3A3F5804325
:101F3000033B252B4ED8DFE803F0164D134D4D4DD6
:101F40004D314D4D4D4D354D4D4D4D394D4D4D4D09
:101F50004D4D4D4D4D4D4D4D4D4D4D4D4D4D4D3DC1
:101F600001238DF804302379C3F340138DF8053035
:101F70001A4E6A462946304604F065FFA17905F1FC
:101F800051031A0106EB031359600020B050627927
:101F9000134B2B4483F8902002B070BD02238DF8C0
:101FA0000430E0E703238DF80430DCE704238DF8E8
:101FB0000430D8E705238DF80430D4E76FF015001E
:101FC000EAE76FF01500E7E76FF01500E4E76FF060
:101FD0001500E1E76FF01500DEE700BF007000407C
:101FE00000000020074B0122C3F8002590F876304E
:101FF00013B1044BDA607047024B01221A605A6039
:10200000704700BF0070004049B9054BD3F82C263B
:10201000D3F8341689B202EB4102C3F82C2670477C
:1020200000700040037C083B062B11D8DFE803F06A
:1020300004100E1006100C00002200E00222064BD5
:10204000C3F8F025002070470322F8E70122F6E7E5
:102050006FF01500704700BF00700040012901D9E2
:10206000437C73B9437C082B0ED8DFE803F00505E9
:102070000505050505050500054AC2F8F4350020EB
:1020800070476FF0150070476FF01500704700BF84
:102090000070004010B582B000F10804806F410C60
:1020A000C003094BC018094A4FF0000341F1000179
:1020B000FEF766F80090019100220023204603F00D
:1020C00081FA02B010BD00BF3F420F0040420F0036
:1020D000F8B54E68731EFE2B55D80D4600231C46DE
:1020E00009E003F1510212012A490020885001330E
:1020F000DBB2072B22D81A4626FA03F111F0010FA2
:10210000EFD02549194491F89070002F3ED0697C9A
:10211000003918BF0121DFF87CC00CEB031EDEF88C
:10212000180520F0807040EA0160CEF818055132A1
:1021300012014CF802700134E4B2D8E72846FFF7E8
:1021400071FF034608B11846F8BD21462846FFF73F
:1021500085FF03460028F6D12146284604F0A8FE54
:1021600003460028EFD1AA680A4BC3F82C26C3F80F
:102170003046094C2946204604F0D5FE204604F09E
:10218000C7FE0346DFE76FF01503DCE76FF01503CA
:10219000D9E700BF007000400000002070B5044681
:1021A0000D46084E00221146304604F0A8FE29468E
:1021B0002046FFF78DFF044606F1400002F032FC96
:1021C000204670BD0000002010B50D4B0024C3F860
:1021D0000441D3F80421C3F81041D3F8102112228E
:1021E000C3F80423072004F052FD224601210720F2
:1021F00004F052FD034804F0C5FE204610BD00BFA8
:10220000007000400000002008B5114BD3F80431E5
:1022100073B90F4BD3F810314BB10D4B0022C3F8FB
:102220001021D3F8102101229A601A605A6008BD6B
:10223000074B0022C3F80421D3F80411012199604F
:10224000C3F800250146034804F0A4FEEFE700BFF1
:102250000070004000000020004870476C12002011
:10226000034BC01A8010034B03FB00F0704700BF04
:102270002C120020B76DDBB638B505460C46FFF7CB
:10228000EFFF01464022034804F067FF014628465D
:10229000A04738BDB88D000030B583B005460C4668
:1022A000FFF7DEFF0146402300932346054A064818
:1022B00004F06DFF011E01DB03B030BD2846A047CE
:1022C000FAE700BFD7710000B88D000008B510B163
:1022D00001280DD008BD0021084804F0C9FE83681C
:1022E00013F0070FF6D10021044804F024FFF1E7B2
:1022F0000121024804F01FFFECE700BFB88D000089
:1023000010B582B04FF02003EFF3118483F31288ED
:10231000BFF36F8F144A136843F00201116013F08A
:10232000010F09D1002384F31188BFF36F8FB3B974
:1023300004F059FF02B010BD0DF1070201214FF06A
:10234000804004F072FE9DF80730012B01D000237D
:10235000E9E7FFF781FF04F0DBFE0123E3E700215B
:10236000024804F0E8FEE5E77C120020B88D00008A
:1023700010B54FF02003EFF3118483F31288BFF3FD
:102380006F8F084A136823F00201116013F0010FE8
:1023900004D084F31188BFF36F8F10BD04F028FFC1
:1023A000F7E700BF7C12002070B582B00546012817
:1023B00007D14FF08043D3F81C3403F00303012B03
:1023C0004CD005F0FDFF044618B9284B1B78002BB4
:1023D00039D14FF02003EFF3118683F31288BFF356
:1023E0006F8F012424B94FF080430222C3F80823E1
:1023F00001AA00214FF0804004F017FE20B1019B9C
:10240000012B26D0012D24D0FCB13046FFF7E2F895
:102410004FF08043D3F81835002BE9D14FF08043BB
:10242000D3F80431002BE3D04FF080430022C3F8EF
:102430000421D3F804210122C3F818250C49C1F85E
:1024400080219A60D4E70026CCE7012004F0DAFE70
:10245000DEE72CB186F31188BFF36F8F02B070BD39
:102460004FF080430222C3F80423F7E7021800204C
:1024700000E100E000B585B0CDF800D0CDF804D083
:1024800000230293012303936B46074A04F09BFE4B
:10249000002805DB4FF480420023684602F0E6FA8C
:1024A00005B05DF804FB00BF3172000008B5064BB3
:1024B0001B7803B108BD4FF4A57006F026FA024B55
:1024C00001221A70F6E700BFFB17002070B5064620
:1024D00000220121104604F0DFFB114801F074FADC
:1024E000104B984219D105F00FFD0024012C12D891
:1024F0002146304604F0BCFD05462146304604F036
:10250000C2FD094904F01CF9002805DB0123AB607A
:102510001C44E4B2EAE7002070BD6FF00400FBE762
:10252000CD2200000000AD0B7C93000010B50446E6
:10253000104B0121BFF35B8F53E8002F43E80010DD
:102540000028F9D1BFF35B8F1AB1631E012B0DD99F
:1025500010BD094804F097FD084900234B608B60CB
:10256000CB6001238B6004F008F9EEE72046FFF70B
:102570001BFFEDE728120020B88D00001812002084
:1025800010B504460A2806D0E1B2064883685B68A5
:102590009847204610BD034883685B680D21984723
:1025A000F2E700BFE88D000010B582B0104C204665
:1025B00004F06DFE204604F05EFE00220D49204628
:1025C00004F04BFE05E001220DF10701084804F07C
:1025D0003BFE074B9B685B6B002BF4D0044898478D
:1025E0000028F0D1024804F04CFE02B010BD00BF3C
:1025F000E88D0000CD28000070B506460D46154850
:1026000083685B680821984755B9124CA5686B68C8
:102610002021204698476B6808212046984770BDC6
:102620000D4803F08FFD07E0717806F8011B09489B
:1026300083685B68984725466B1EDCB2002DF3D19A
:10264000044883685B6820219847044803F07AFDBA
:10265000E5E700BFE88D0000D4930000D8930000A8
:10266000F8B505460E461446104883685B689847DF
:102670000CB92E70F8BD2F7805F8016B0C4803F0EB
:1026800061FD0BE0094883685B68394698472B7801
:10269000284600F8017B1F4634460546631EDEB21D
:1026A000002CEFD1034803F04DFDE3E7E88D000077
:1026B000D4930000D893000010B50C467B4BBFF3B9
:1026C0005B8F53E8002F22F0040143E8001CBCF1AB
:1026D000000FF6D1BFF35B8F12F0040F1CD0744BC8
:1026E0001B5C13F0040F03D1724B01221A604DE002
:1026F0006E4BBFF35B8F53E8001F41F0080143E8C6
:102700000012002AF7D1BFF35B8F3038694B186095
:10271000694B00221A6089E0BFF35B8F634B1B6833
:10272000BFF35B8F13F0080F30D0614B1B5C13F0CD
:10273000040F37D13B2810D15C4BBFF35B8F53E8BC
:10274000002F42F0100143E8001CBCF1000FF6D14D
:10275000BFF35B8F12F0100F68D0544BBFF35B8F49
:1027600053E8002F22F0080243E800210029F7D1A6
:10277000BFF35B8FBFF35B8F53E8001F21F01001A5
:1027800043E80012002AF7D1BFF35B8F482826D810
:1027900043283ED3433805283BD8DFE800F05434C3
:1027A0003A763A66BFF35B8F404B1B68BFF35B8F93
:1027B00013F0100F09D0404A136803EB83035B004A
:1027C00013600344303B136030E03A4A136803EB74
:1027D00083035B0013600344303B136026E07E28D4
:1027E00017D1364B1B78A3B10121354803F0AAFC61
:1027F000344B1878314B19780139C9B2197020441B
:10280000FFF7FAFE05E02F4B1B782A4A11688B422E
:102810000DD2264BBFF35B8F53E8001F21F002015E
:1028200043E80012002AF7D1BFF35B8F10BDC8B296
:10283000224C2278024422701B1A224A137022482A
:1028400003F080FCE5E71D4B1B781A4A11688B42A8
:10285000DFD3CAB29B1A194803701A4B1878024486
:102860001A70174803F06EFCD3E7164B197800294D
:10287000CFD0154803F066FC1049124A0B78107847
:1028800003440B7000231370C3E70C4B1978002925
:10289000BFD00B4803F056FC0A49084A0B78107861
:1028A00003440B7000231370B3E700BF8C120020A9
:1028B000559600008812002084120020FD17002089
:1028C000E4930000FE170020DC9300002DE9F043A4
:1028D00083B031E0794B18680022002302F064F8DD
:1028E000774B1860002845D103B0BDE8F083744BE6
:1028F000196805319DF80700FFF7DEFE1CE09DF822
:1029000007305B2B18D16F4BBFF35B8F53E8002F61
:1029100042F0020243E800210029F7D1BFF35B8FA8
:10292000BFF35B8F53E8001F41F0040143E800123E
:10293000002AF7D1BFF35B8F634804F0B7FC00288F
:10294000D2D0614804F0A9FC0028CDD05E4B9B6832
:102950005B6B1BB15C4898470028EDD001220DF15C
:102960000701594804F0ABFC0028BDDB544B1B6841
:10297000002BAFD0BFF35B8F524B1B68BFF35B8F55
:1029800013F0020FB3D14F4BBFF35B8F53E8002F0F
:1029900022F0010143E800100028F7D1BFF35B8F5C
:1029A00012F0010FABD19DF80710484B5B5C13F0A0
:1029B000970F12D0464B1B78464A1278D0187E28C3
:1029C000BAD83F48006803F1010C414C84F800C0BC
:1029D00018440530FFF744FEAEE71B2910D808293C
:1029E0002DD3083913292AD8DFE801F00C552E29F8
:1029F0002932292929292929292929292929291C4B
:102A00007F291CD1324B1B78CBB12D4A1068013B7A
:102A1000DBB22F4A137018442E4B19780530FFF79C
:102A2000EBFD0CE0274BBFF35B8F53E8001F41F039
:102A3000010143E80012002AF7D1BFF35B8F9DF834
:102A40000720254B1A7077E7234B1B780D2BF6D008
:102A50001B4D2B68DFF8788098F800201D4F3978DF
:102A60000A44134400245C71174ED6F80890D9F834
:102A700004300D2130469847D9F804300A213046F9
:102A8000984788F800403C702968144B186805F096
:102A900056FD2C60D3E7124B1B68002BCFD00D4A9C
:102AA0001278002ACBD1064A1068094C21780530EB
:102AB0009847237803442370C1E700BF9812002091
:102AC000801200208C120020E88D00005596000036
:102AD000FE170020FD170020FC1700209412002094
:102AE0009012002010B5044C2046FFF783F92046D1
:102AF000FDF78CFF10BD00BF8125000008B505481B
:102B000005F019FC18B1FFF7EDFF002008BD6FF0CC
:102B10001200FBE7E88D000008B5044B1860044B79
:102B20001960044B1A60FFF73FFD08BD98120020A2
:102B3000941200209012002008B90248704700202B
:102B4000704700BFD08D0000F0B585B00E46194625
:102B500043681B7B06F01F0545EA4315B2F5001FCD
:102B600022D007461446002301930293104604F036
:102B700092FC8DF804007B689968F14011F0010F18
:102B800002D1B4F1A07F14D0002301AA194628462F
:102B900001F0FEF8194B98422CD10121284601F092
:102BA00057FA002005B0F0BD284601F08DFA00204C
:102BB000F8E705F01F0303F5E0734FF0A04252F869
:102BC000233013F0010FDFD10DF10F01284601F082
:102BD000E3F90B4B984203D00DF10F030293D3E7B7
:102BE0000DF10F0001F02CFA044B9842F4D06FF075
:102BF0000B00D7E76FF01500D4E700BF0000AD0B66
:102C00000400AD0B2DE9F04186B00E461446D0F815
:102C1000048098F80C3001F01F0545EA43150DF1CA
:102C20001701284601F0B8F9074614F4403F3AD09E
:102C30000021039104910B4603AA284601F0A8F84D
:102C4000334B984261D19F423DD014F4003F49D0AC
:102C50000DF10301204604F0A3FB074650BB9DF88D
:102C600003308DF8043014F4803F0CBF012300239F
:102C70008DF80530204604F0D6FB8DF8060014F4DC
:102C8000002F25D0D8F804200123B340C2F808351E
:102C9000002201A9284601F00FF91D4B984209D0E6
:102CA0006FF0150706E0284601F038FA184B9F42EE
:102CB00004D00027384606B0BDE8F0819DF8170023
:102CC00001F0B6F9F5E79DF8170001F0B1F9BCE79E
:102CD00014F4802FDCD0D8F804200123B340C2F8CC
:102CE0000C35D5E7204604F09EFB8DF80800002344
:102CF0001A4602A9284601F04BF8054B984201D12B
:102D00000027D7E76FF01507D4E76FF01507D1E775
:102D10000000AD0B08B501F081F908B1002008BD35
:102D200001F052F9084B98420AD10021074801F0FE
:102D30002DF900220521062003F0AEFF0020EEE76A
:102D40006FF00400EBE700BF0000AD0BCF74000094
:102D50004FF0000C8C4580F0B780F0B532E04FF0BA
:102D6000FF3339E0C2F80C35012425467F2B23D0F0
:102D7000B5F1FF3F0AD0002D40F0958003F01F070A
:102D80000125BD404FF0A047C7F80C55855915F4F3
:102D9000005F40F091802646C5F3C11503F01F0384
:102DA00044EA460444EA850444EA0E2403F5E07349
:102DB0004FF0A04545F823400CF1010C5FFA8CFC64
:102DC0008C457CD24FEA8C0650F82C40C4F3432E3D
:102DD00004F07F037F2BC2D0240C192C71D801A5DD
:102DE00055F824F0652D00004D2E0000592E0000EE
:102DF000632E0000C32E0000C32E0000C32E00006F
:102E0000C32E0000C32E0000C32E0000C32E0000FE
:102E1000C32E0000C32E0000C32E0000C32E0000EE
:102E2000C32E0000C32E0000C32E0000C32E0000DE
:102E3000C32E0000C32E0000C32E00006F2E000022
:102E40007D2E00008B2E0000992E0000C2F8143554
:102E500000244FF0FF3589E7C2F8083501242546E4
:102E600084E7C2F8103500244FF0FF357EE7C2F842
:102E700060358559C5F38035012477E7C2F864359C
:102E80008559C5F38035012470E7C2F86835855946
:102E9000C5F38035012469E7C2F86C358559C5F35F
:102EA0008035012462E703F01F070125BD404FF084
:102EB000A047C7F8085569E7012600246CE7002001
:102EC00001E06FF08500F0BD00207047024800214E
:102ED000C2E90001002070470024F400F0B583B07F
:102EE000456806690021A86A04F0D6FB002837DB94
:102EF0000024274602E03B43DFB20134032C14D800
:102F00002A4601A9204604F035FB0028F5D0019B94
:102F100003F01F024FF0A043D3F80435D34013F061
:102F20000103E8D00123A340E5E7002305E04FF4C7
:102F3000004106EB430291800133032B05D80122A7
:102F40009A401742F3D00021F3E700231A4605F117
:102F50000801284601F036F9044B984202D10020BE
:102F600003B0F0BD6FF00F00FAE700BF0000AD0B3B
:102F700043681A68B1F5164F6FD03AD8B1F5165FAD
:102F80006ED00AD9B1F5E14F75D024D947F6122396
:102F900099422BD14FF4000313E0B1F5966F61D045
:102FA00007D9B1F5166F63D0B1F5965F10D13C4BE0
:102FB00007E0B1F5967F58D0B1F5167F05D14FF4F3
:102FC0001C33C2F82435002070476FF0150070479D
:102FD0006FF015007047B1F5615F4ED0B1F5964FB7
:102FE00001D1304BEDE76FF0150070476FF0150021
:102FF0007047B1F5613F42D009D9B1F5612F46D094
:103000001FD9294B994248D14FF08053D9E7B1F5E8
:10301000963F37D005D9B1F5E13F0FD14FF0EB73B3
:10302000CFE74DF6C02399422ED0B1F5614F02D1C2
:103030004FF46B03C5E76FF0150070476FF0150094
:1030400070471A4B994225D0B1F5E12F02D14FF0CC
:10305000E863B6E76FF0150070474FF41D03B0E763
:10306000134BAEE74FF49E23ABE74FF4A033A8E732
:103070004FF41D23A5E70F4BA3E70F4BA1E74FF03C
:103080006C739EE70D4B9CE74FF4650399E74FF097
:10309000706396E74FF0806393E76FF01500704719
:1030A00000B0130000A04E0040420F0090D003007B
:1030B0000050270000C0750000F03A0000903A016F
:1030C000F8B505460E46076905F07AF910B9124BB6
:1030D0001B7883B94FF02003EFF3118483F3128838
:1030E000BFF36F8F284604F0A7FB40B984F3118823
:1030F000BFF36F8FEEE7284604F0CFFC04467B69F0
:103100001E7001227969284604F0B0FB84F311880F
:10311000BFF36F8FF8BD00BF0218002038B504461A
:103120000D4601F11C0001F045F80C4B984211D1FD
:103130002B7F04F590710C34094AA23342F8331006
:1031400002EBC3035C60297F01238B40C2F8043586
:10315000002038BD6FF00400FBE700BF0000AD0B9E
:1031600000F0014021F07F4100F5A870014B43F8C9
:1031700020107047001001404FF480338340024A12
:10318000C2F84433704700BF001001404FF4803351
:103190008340024AC2F84833704700BF0010014024
:1031A000014BD3F804057047001001402DE9F041B0
:1031B00006468846FFF7EAFF304604F017FD45460D
:1031C000032701E03D19013729463046FFF7CAFFC2
:1031D0003046FFF7D1FFFFF7E3FF0446C11C284646
:1031E00004F0F3FC0B4B984211D9304604F0F1FC8B
:1031F0000028E7D0FFF7D4FF0446414604F0E5FC81
:10320000B0F5000F03D9304604F0F0FCDAE7BDE872
:10321000F08100BFFDFF7F00034B044AC3F8082381
:10322000C3F84823704700BF0010014003000F009F
:1032300010B5012383406FEA030C0E4ABFF35B8F86
:1032400052E8001F01EA0C0E42E800E4002CF7D11E
:10325000BFF35B8F4FF4803282400748C0F80823E9
:10326000BFF35F8FBFF36F8F0B4214BF01200020AD
:1032700010BD00BFDC120020001001404FF480336D
:103280008340144AD2F80423134201D1002070472E
:1032900010B5044601238340DB430F49BFF35B8F26
:1032A00051E8002F02EA030041E8000CBCF1000FD6
:1032B000F6D1BFF35B8F22FA04F313F0010F03D1B1
:1032C000204604F086FC18B1204604F08FFC012053
:1032D00010BD00BF00100140D812002001B9704796
:1032E00001238340114ABFF35B8F52E800CF4CEAC1
:1032F000030C42E800C10029F7D1BFF35B8F4FF404
:10330000803383400A4AC2F80433BFF35B8F094B12
:103310001B68BFF35B8FC34013F0010FDFD0064B78
:103320004FF40032C3F80021D9E700BFDC120020BF
:1033300000100140D812002000E100E038B514462A
:103340001046194604F05EFC02460D490B68E01A6F
:103350001B184C6844F100040B604C60A2F500138C
:10336000B3F5400F09D2074B1B68190A1B06D41886
:1033700041F10005044BC3E9004502F01FF838BDD8
:10338000280B0020E0120020300B002038B50D4B38
:103390001C68250A2406BFF35F8FFFF701FF034671
:1033A000001945F10001B3F5801F0AD2064BD3E99D
:1033B0000023904271EB030303D210F1807041F1BE
:1033C000000138BDE0120020300B0020F8B50646A1
:1033D00014461D461046194604F014FC0746FFF734
:1033E000D5FFA04271EB050315D2201A65EB010150
:1033F000174B984271F1000127D2164B03EB0613CD
:10340000D3E90223AB4208BFA24212D0394630466C
:10341000FFF7CCFE0DE00123B3400F4ABFF35B8FF3
:1034200052E8000F184342E800010029F8D1BFF329
:103430005B8F084B320103EB0616C6E9024506997D
:103440009950079B73600020F8BD6FF01500FBE7F3
:1034500001008000180B0020D812002030B583B086
:10346000FFF7DAFE00231D4AC2F80835002B24DDE1
:103470001A4C0225C4F80453194B4FF40032C3F818
:10348000802100220121112003F006FC112003F00D
:10349000FEFB0123A3602360124A13600024019401
:1034A000114B0093114A0023204604F0BCFB284630
:1034B000FFF73CF8204603B030BD0D4A02EB031283
:1034C0004FF0FF304FF0FF31C2E902014FF480327C
:1034D0009A400249C1F804230133C7E700100140B4
:1034E00000E100E0DC1200203D330000FFFF7F0020
:1034F000180B00202DE9F04782B00446FFF7BEFE0E
:1035000010B902B0BDE8F087FFF740FF82460D46D4
:1035100004F07BFB0646154B03EB0413D3E9028949
:10352000C24575EB09050BD20025304604F076FB49
:10353000002DE6D0009742464B462046A847E0E7DC
:103540000A4A230102EB0411D5584F680020D050DD
:103550004FF0FF324FF0FF33C1E902232046FFF75F
:1035600015FE204604F042FBDFE700BF180B0020E9
:1035700010B50E4BD3F8043313F0020F0DD00B4BE4
:10358000D3F804314BB1094B0022C3F80421D3F81E
:103590000431074A1368013313600024002C00DD56
:1035A00010BD2046FFF7A6FF0134F7E700100140E9
:1035B000E012002010B582B0B0F1FF3F06D0012824
:1035C00009DD154B984224DC044605E0134B00222C
:1035D0001A70134C03E00124104B01221A70FFF7FC
:1035E000D5FE104B1A685B68801AB0F5000F00D347
:1035F00000240444B4F5000F00D3094C0020121934
:1036000001900949009143F1000304F00CFB02B062
:1036100010BD034CE0E700BFFEFF7F000118002053
:10362000FFFF7F00280B00203D33000008B5FFF7A7
:10363000ADFE024B1B68C01A08BD00BF280B00205E
:10364000BFF34F8F0549CA6802F4E062044B13438D
:10365000CB60BFF34F8F00BFFDE700BF00ED00E080
:103660000400FA05024BD3F80034002BFAD070475F
:1036700000E0014008B5034BC3F80405FFF7F2FF73
:1036800008BD00BF00E0014038B504F0E9FA40B1E0
:103690004FF08053D3F82433C3F304236B4AC2F8AA
:1036A000403504F0EFFA10B1694B6A4A5A6704F0EA
:1036B000FFFA48B14FF08053D3F84432C3F342339A
:1036C0004FF08042C2F83C3504F004FB30B1624A4E
:1036D000D2F8FC3023F08073C2F8FC3004F010FB09
:1036E00040B14FF080430022C3F80C21C3F81021F1
:1036F000C3F8382504F016FB20B14FF080430322B5
:10370000C3F8A02504F024FB60B1544B0522C3F894
:1037100010260122C3F888260022C3F818263F226B
:10372000C3F8142604F02AFB002846D04FF080523C
:10373000D2F804144A4BC3F82015D2F80814C3F881
:103740002415D2F80C14C3F82815D2F81014C3F8B5
:103750002C15D2F81414C3F83015D2F81814C3F885
:103760003415D2F81C14C3F84015D2F82014C3F84D
:103770004415D2F82414C3F84815D2F82814C3F815
:103780004C15D2F82C14C3F85015D2F83014C3F8E5
:103790005415D2F83414C3F86015D2F83814C3F8AD
:1037A0006415D2F83C14C3F86815D2F84014C3F875
:1037B0006C15D2F84424C3F8702504F001FB48B11D
:1037C0004FF08053D3F8583203F04F034FF080424C
:1037D000C2F8E43E04F006FB60B14FF08043D3F83A
:1037E000003413F0010F05D04FF080436FF0010259
:1037F000C3F8002404F008FB30B11A4AD2F83C3771
:1038000043F48063C2F83C3704F026FB4FF01023EA
:10381000D3F80032002B06DB4FF01023D3F804322C
:10382000002B00DB38BD0120FFF724FF4FF01024F0
:103830001525C4F80052FFF715FFC4F80452FFF72E
:1038400011FF0020FFF716FFFFF7FAFE00300140DE
:1038500000C007400DF0ADBA00ED00E000500040A0
:1038600000C000400010004010B50468B4FA84F3B2
:10387000C3F11F035FFA83FC002B16DB012202FA5F
:1038800003F324EA0303BFF35B8F50E8002FA24247
:1038900004D140E8003EBEF1000FF6D1BFF35B8FCC
:1038A000E3D181F800C0024810BD0248FCE700BF28
:1038B0000000AD0B0200AD0B0368CB4013F0010F0D
:1038C00015D100B5026801238B401343BFF35B8F12
:1038D00050E800CF944504D140E8003EBEF1000F0F
:1038E000F6D1BFF35B8FEDD102485DF804FB0248CF
:1038F000704700BF0000AD0B0400AD0B0D4BD3F8BB
:10390000FC1041F08072C3F8FC20A3F55D431868F9
:1039100040F001021A605A68074B5B689B1AB3F5C6
:103920000A5FF9D3044B186003F55D43C3F8FC103C
:10393000704700BF00ED00E0001000E070B582B0FD
:10394000064618B1012816D002B070BD4FF0804372
:103950000222C3F808230022C3F80421D3F804216B
:103960000122DA6001238DF807309E420FD0002536
:1039700042F2107413E04FF080430122C3F8082391
:103980000021C3F80011D3F800115A60EAE70DF1E5
:103990000705EDE7012004F06FFA013C0CD02A4640
:1039A00031464FF0804004F06BFA28B1002DF1D081
:1039B0009DF80730012BEDD0012EC5D1014B00221F
:1039C0005A71C1E7E4120020064B1B793BB9054B45
:1039D000186001221A7100225A7103487047034887
:1039E000704700BFE41200200000AD0B0C00AD0BCF
:1039F00008B54FF08043D3F800318BB14FF08043CE
:103A00000022C3F80021D3F800210122C3F80823C3
:103A1000154B5B7923B9144B5A711B6800209847EA
:103A20004FF08043D3F804319BB14FF08043002224
:103A3000C3F80421D3F80421D3F81824D3F8183498
:103A400012F0030F06D14FF080430122C3F818256E
:103A50009A6008BD4FF080430222C3F80823024B4E
:103A60001B6801209847F4E7E41200200830034B5C
:103A700033F8100000F00100704700BF080A002072
:103A80000830034B33F81000C0F34010704700BFFC
:103A9000080A00200830044B33F8100010F01C0016
:103AA00018BF0120704700BF080A00200830034BF0
:103AB00033F81000C0F34000704700BF080A002030
:103AC0000830024B33F81000400B7047080A002002
:103AD000002204E04FF0FF3383420FD001321F2A4F
:103AE0000AD802F10803064931F8133013F4807F35
:103AF000F0D0C3F34323EFE7002070470120704765
:103B0000080A0020002313B14FF0FF307047074A26
:103B100052F83320824201D00133F4E7034A02EB2A
:103B2000C30252688A42F7D118467047080A00203B
:103B300000F108020D4B33F81230C3F38203042B5B
:103B40000DD0052B0DD000F01F004FF0A043D3F88F
:103B50001035C34013F0010F05D003207047032038
:103B60007047022070470220704700BF080A0020FB
:103B70000830064B33F8100010F4807F04D0C0F3F7
:103B8000432003EBC000704700207047080A002064
:103B900070B504460D46FFF7EBFF20B1066842689A
:103BA00029462046B047044B9B6823B1024AD2689D
:103BB00029462046984770BD080A002000F10802F7
:103BC0000E4B33F8123013F4807F16D010B5C3F3C8
:103BD0004324104623F4F853084A22F810302046B4
:103BE000FFF776FF00B110BD0448002340F83430E1
:103BF00021465430FFF760FEF5E77047080A0020C1
:103C000010B50446FFF73CFF40B12046FFF758FFD0
:103C100000F5A270064B002243F820202046FFF753
:103C2000CDFF0834034B002223F8142010BD00BF41
:103C300000600040080A002070B582B005460E46BC
:103C40001446FFF7BBFF26B321463046FFF75AFF65
:103C5000031E13DB104941F8336001EBC3025460CB
:103C600005F1080031F810205B029BB2134343F4C6
:103C7000807321F81030094802B070BD0DF10701C2
:103C80000748FFF7F1FD054B9842F5D19DF8073045
:103C9000E0E70248F0E700BF080A00200000AD0B93
:103CA0005C0A0020F0B583B0002301A808E04FF0C3
:103CB000A042D2F8201540F8041BC2F820150133A9
:103CC000002BF4D00024A4B31E4B0022C3F87C21A7
:103CD000D3F87C3101A804F072FA0028F2D103B0C5
:103CE000F0BD90FAA0F0B0FA80F000EB441000F1C3
:103CF0000802154B33F81210C60800F0070301AF95
:103D0000BA5D012505FA03F3DB435BB21340BB55F3
:103D100000F01F074FF0A04607F5E07356F8232088
:103D2000C2F30142C1F3820104F0FAF9BD40C6F8C2
:103D3000205502AB03EB840353F8040C0028D0D1C8
:103D40000134C0E700600040080A002038B504468E
:103D500018E094FAA4F3B3FA83F301229A4024EA18
:103D600002040A4A03F5A27352F82350C5F304254E
:103D700052F82300C0F3014004F0CBF90146284675
:103D8000FFF706FF002CE4D138BD00BF0060004003
:103D90002DE9F04184B0044615461E4609B30F468E
:103DA00004F0A1F900283FD100238DF80E308DF8E2
:103DB0000F30019300933B460DF10F020DF10E0100
:103DC000204604F038F9384A04F1080132F811307D
:103DD00023F002039BB222F8113043F0010322F8D2
:103DE0001130BDB12F78D5F804802046FFF75EFE74
:103DF000E0B1B8F1000F51D12B4A04F1080132F8BB
:103E0000113023F01C039BB222F8113043EA8703E0
:103E100022F81130002E45D0726831682046FFF735
:103E20000BFF04B0BDE8F0812048FAE71E4A04F118
:103E3000080132F8113023F02003DB04DB0C22F8F8
:103E40001130B8F1000FD7D0032F29D86B681D7837
:103E500037B905F5A275164B002243F82520CBE7AC
:103E6000384604F057F90346114805F5A27150F899
:103E7000212022F0030240F821202246294604F0A6
:103E8000A2F8094A04F1080132F811306D03ADB20D
:103E90002B4343F0200322F81130ADE70348C0E77D
:103EA0000248BEE70348BCE7080A00200400AD0B47
:103EB000006000400000AD0B70B584B004461546AC
:103EC00029B30E4604F01EF920B12046FFF7D8FDB5
:103ED000002838D12046FFF7DDFD10B17378012BA3
:103EE00031D001238DF80F30002301930096B31CCD
:103EF000721C0DF10F01204604F09DF81F4A04F1D9
:103F0000080132F8113043F0030322F8113085B371
:103F1000204604F0F7F870BB2E7806F5A272184B15
:103F2000002143F82210154A04F1080132F811303B
:103F300023F02003DB04DB0C22F811306B7823B96B
:103F4000104804B070BD1048FBE7AA7800922246E2
:103F500031460B4804F050F8084A083432F814305F
:103F60007603B6B2334343F0200322F814300548F9
:103F7000E7E70448E5E70448E3E700BF080A002054
:103F8000006000400000AD0B0400AD0B014B9860D9
:103F9000D9607047080A002038B504460D46FFF77F
:103FA0006FFD40B104F10800044B33F810305B0B97
:103FB0002B70034838BD0348FCE700BF080A002007
:103FC0000000AD0B0400AD0B0F4B93F858300BB154
:103FD0000E48704710B50E4C40220021204604F0D8
:103FE00096FD062002F053FE0A4B0022C3F87C2106
:103FF000D3F87C214FF00042C3F80423012384F856
:1040000048306364044810BD080A00200500AD0B69
:10401000180A0020006000400000AD0B034B93F82D
:104020005800003818BF0120704700BF080A002060
:1040300008B501460148FFF73FFC08BD580A0020BB
:1040400008B501460148FFF70FFC08BD580A0020DB
:1040500038B504460D46FFF713FD00B3204604F0C3
:1040600051F8E0B12046FFF72BFD830003F5807384
:104070009BB203F1804303F5C04300221A601B6822
:10408000104A00F5A27152F8213043F0010342F8C2
:104090002130ADB101238340C2F8043310E0204643
:1040A000FFF746FD04F01F044FF0A04204F5E07452
:1040B00052F8243023F4403343EA004342F82430DA
:1040C00038BD00BF0060004010B50446FFF7D8FCC3
:1040D000A0B1204604F016F880B12046FFF7F0FCAE
:1040E000012282400C4BC3F8082300F5A27053F85C
:1040F000202022F0030243F820200BE004F01F04EC
:104100004FF0A04204F5E07452F8243023F4403319
:1041100042F8243010BD00BF0060004010B50446D6
:10412000FFF7A4FC08B9094810BD2046FFF7CCFFF3
:104130002046FFF765FD04F01F0404F5E0744FF01E
:10414000A043022243F824200148EDE70400AD0B10
:104150000000AD0B38B501204FF4807300210C46F0
:1041600003E0400004339BB20131072914D803F166
:10417000804202F5C0421268002AF2D00C4AD2F8FE
:1041800004231042EDD003F1804202F5C042002525
:10419000156012680443E4E7054BD3F87C311BB982
:1041A0002046FFF7D3FD38BDFFF77CFDF8E700BFE1
:1041B0000060004008B501460148FFF755FB08BD07
:1041C000640A00202DE9F04104460D46067906EB0D
:1041D00046002B4901EB8001097A11B12948BDE85D
:1041E000F081274F4FEA800807EB800147F808204D
:1041F0004B602B7B8B722946204603F0F9FF236826
:104200000122C3F8002523686879A9792A89C3F8AF
:104210000C05C3F80415C3F808252268AB7AE97ABF
:1042200043EA0123C2F8103522680023C2F80032A5
:104230002268C2F800332268C2F81C31D2F81C216F
:104240002268C2F81031D2F810212268C2F8143165
:10425000D2F814212268C2F80431D2F8043157F898
:10426000083023B1206840F3073002F010FD06EB60
:104270004606034B03EB860301221A720248AEE79F
:10428000EC1200200500AD0B0000AD0B38B58C46DC
:10429000017901EB4101214C04EB81010468DCF858
:1042A0000050C4F82055BCF80450C4F82455DCF87C
:1042B0000850C4F82855DCF80C50C4F82C55046894
:1042C000DCF80050C4F84055BCF80450C4F844551C
:1042D000DCF80850C4F84855DCF80C50C4F84C55CC
:1042E00002F0010505EB52020468C4F8142513F02E
:1042F000010F05D113F0020203D05DB1082200E0E6
:1043000010220468C4F80022DAB22DB10C2303F0A5
:10431000C6FF38BD0422F4E70823F8E7EC120020BA
:104320000246037903EB43000A4901EB8001097A55
:10433000C9B202290CD001201268D2F8042132B18E
:1043400003EB4303034A02EB830301201872704717
:104350000020F1E7EC120020154B03221A615A618C
:1043600014499961144ADA614FF480621A6200229A
:104370009A625A62DA621966104959661021996682
:104380001A67DA665A670E4A1068C3F80700BFF367
:104390005F8F0C4A92E8030018609980090C9971AC
:1043A000BFF35F8F20229A71BFF35F8F704700BF0A
:1043B000081700207C95000008130020F812002048
:1043C000889500008C950000034B00E01833034AE9
:1043D0009342FBD3704700BFB88D0000308E0000C1
:1043E000014B986894307047B017002070B50646AE
:1043F000124B53F8204009E0434217E0EA6813707B
:10440000EA68537843F0010353700834731C0B4A75
:1044100052F82330A34210D965685DB1236828465D
:10442000984703460028EBD00028E5DBFF2BE5DDAD
:10443000FF23E3E723689847E7E770BDA8950000EE
:1044400010B586B0B023114C03FB004400EB400CC8
:1044500000EB80000E4B03EB80030E4A0592012215
:1044600004920F22039200220292019200930A4BBF
:104470004FF4A072094901EBCC11204600F006F977
:10448000637B23F00403637306B010BD380B002078
:10449000B017002098950000E94700008020002018
:1044A00008B50A4B01221A700320FFF79FFF01F0A5
:1044B000CDF80420FFF79AFF00F04CF9FCF78AFAD8
:1044C000034A137B23F00103137308BD0218002075
:1044D000E80B002008B50146014A0248FDF774F9CF
:1044E000A1440000E80B002008B50348034A121A53
:1044F000002103F04AFF08BD180B0020041800201B
:1045000010B50446FFF79CFFB0230B4903FB0411D1
:104510000A4A04EB840302EB8303D9601C7404EBA6
:104520004411074B03EB811303F5046304EB84048C
:1045300002EB8402536010BD380B0020B01700203E
:104540004018002070B586B000F07AFD104D114B78
:104550009D61114B0593012304930024039402945D
:10456000019400940D4B4FF480620D49284600F0F1
:104570008DF806466B7B23F004036B73284604F02A
:1045800067F82046FFF7BCFF304606B070BD00BF9D
:10459000E80B0020B0170020A0950000A144000007
:1045A0000022002000B5ADB00020FFF71FFF1D4B1B
:1045B00083F308881C4C636943F400736361E02350
:1045C00084F822300025E57725766576A57684F88F
:1045D0002050636A43F4E023636284F82350FDF7BC
:1045E000C5FAFCF7E3FF4FF0FF33A362E362FDF788
:1045F000DFFBFDF76FFB01248DF80D408DF80C40BB
:10460000269527952995094BC3F808D0FFF7DCFEBE
:104610002046FFF7EBFE0220FFF7E8FEFFF792FFD0
:10462000FFF758FF8020002000ED00E0B0170020C9
:104630004FF02003EFF3118183F31288BFF36F8FE4
:104640000A4B5B6A834204D11A6F084B5A6207E037
:10465000134613B11A6F8242FAD10BB1026F1A6777
:1046600081F31188BFF36F8F704700BFB017002030
:1046700008B553EA020102D103F0A8FE08BD0249C1
:10468000183000F01BFEF9E7DD8600002DE9F04F41
:1046900085B004460F4615461E46DDF838A0DDF805
:1046A0003C90DDF84080DDF84CB000F158038365A4
:1046B000C365129B0422119903F08CFE2A463946E9
:1046C000204603F06AFE0546CDF80880CDF8049038
:1046D000CDF800A03346024639462046FDF72EF8B5
:1046E000002363652666C4F864A0C4F86890C4F823
:1046F0006C804FF02003EFF3118283F31288BFF335
:104700006F8F134B596A21675C6282F31188BFF384
:104710006F8FBBF1000F13D01F22594604F17400B4
:1047200004F0FFF9002384F89330094B9B685BB1D8
:10473000D3F8A430C4F8A430284605B0BDE8F08F03
:10474000002384F87430F0E7C4F8A430F4E700BF25
:10475000B017002030B587B0214C14E0A36A059350
:10476000236A0493E3690393A36902936369019342
:1047700023690093E368A26861682068FFF786FFF9
:1047800023685C652C34174B9C42E7D300F01AFA7F
:10479000134C00E02C34134B9C421CD2606AB0F1E5
:1047A000FF3FF7D0256820EAE070C117C90341EA4E
:1047B0005041C00340F2E733C0184FF47A724FF013
:1047C000000341F10001FBF7DBFC02460B462846E3
:1047D000FFF74EFFDEE700F0E1FB07B030BD00BFA2
:1047E000688F0000688F000008B501E0FCF7E4FE68
:1047F0004FF02002EFF3118382F31288BFF36F8F23
:1048000004F064F8054B5861054B1B78002BEDD084
:10481000FCF7C4FD0028EBD1E8E700BFB01700208B
:10482000021800202DE9F04182B004461E464FF0E8
:104830002003EFF3118583F31288BFF36F8F2B46AC
:10484000C16899B9002951D1364A926892F90E206F
:1048500022610131E160334A9268A26083F31188DA
:10486000BFF36F8F002002B0BDE8F081174680686B
:104870002C4A92689042E5D056EA070138D090F968
:104880000E80414692F90E0003F0B5FD804536DCFE
:104890004FF000080097019622462946224800F072
:1048A000C9FA0028DFD04FF02003EFF3118583F31E
:1048B0001288BFF36F8F2E46A36843B323689C42D0
:1048C00023D013B3216993F90E0003F094FD014640
:1048D000204603F09BFDE8B9B8F1000F1AD186F32A
:1048E0001188BFF36F8F6FF00A00BCE72269AFE752
:1048F00085F31188BFF36F8F6FF00F00B3E70146A8
:10490000204603F083FD8046C4E72169E0E7B8F163
:10491000000FE4D02946044800F03EF96FF00A0089
:10492000A1E700BFB0170020D817002083688BB321
:1049300070B504461A4A926893422ED1C368012B7F
:1049400003D9013BC360002070BD4FF02003EFF39B
:10495000118583F31288BFF36F8F016903F056FD51
:10496000204603F02BFFA06068B190F90E30236160
:104970000024C0F8AC4003F06BFE2946094800F063
:104980000BF92046E0E70020E06085F31188BFF3D3
:104990006F8FD9E76FF0150070474FF0FF30D3E706
:1049A000B0170020D817002010B582B08446864684
:1049B0004FF02000EFF3118180F31288BFF36F8F67
:1049C0000C465EF8080BA0B1036823F00303CCF893
:1049D0000030DCF80420904208D0012103F0A0FD53
:1049E00084F31188BFF36F8F02B010BDCCF8043090
:1049F000F3E753EA02000AD0009201937246704630
:104A000000F018FA48B9064B9B685869ECE781F347
:104A10001188BFF36F8F0020E6E70020E4E700BFB6
:104A2000B017002038B504464FF02003EFF311858E
:104A300083F31288BFF36F8F03F0C0FE48B10022EA
:104A4000C0F8AC2003F004FE2946074800F0A4F8A3
:104A500038BDA368E268934203D001221344A360E7
:104A6000F2E70022FAE700BFD817002010B582B0A5
:104A70004FF02004EFF3118184F31288BFF36F8F9E
:104A8000846844B1013C846081F31188BFF36F8F67
:104A9000002002B010BD53EA020406D00092019338
:104AA0000246054800F0C6F9F3E781F31188BFF329
:104AB0006F8F6FF00F00ECE7D8170020C3897F2BB2
:104AC00011D80E4B1B687BB190F90E200C4B1B6864
:104AD0009A420CDB437B13F01F0F0AD1094B98421B
:104AE00009D0012300E0002303F0010070470023F8
:104AF000FAE70023F8E70023F6E700BFE4170020F9
:104B0000E0170020380B0020044BC01AC010044BE3
:104B100003FB00F0034B01221A547047980C00204D
:104B2000ABAAAAAADC170020B3F1FF3F08BFB2F17D
:104B3000FF3F00D1704708B50249183000F0BEFBB6
:104B400008BD00BFDD86000070B505460D4B1E7C1C
:104B500006EB46030C4C04EBC304204603F098FE1E
:104B60000A4B00229A552846FFF7A8FF00B970BDEE
:104B7000074B1A68013AD3170649204600F09EFBFE
:104B8000F5E700BFB0170020980C0020DC170020CC
:104B9000E4170020094B000008B50B4659B9EFF3A4
:104BA000058242B9064A90699268904203D008464D
:104BB000FCF76CFD03E083F31188BFF36F8F08BD32
:104BC000B017002000234FF02002EFF3118182F391
:104BD0001288BFF36F8F09E0064B9A68D37B013BC5
:104BE000D37381F31188BFF36F8F0123002BF3D0B0
:104BF000704700BFB017002038B50446104803F0D6
:104C000020FD054670B184B90E4B9B685A7B12F0AB
:104C10001F0F0AD1AA6942B9DA897F2A05D9094A40
:104C200093610BE0074BDD68EDE7064B9B68AB42F9
:104C300002D02846FFF788FF024B9D6138BD00BFB8
:104C4000CC170020B017002038B50546427B90F9FC
:104C50000D30002B0ADB6B7B63F07F036B731B4B08
:104C600053F81C4F9C4210D100240EE002F07F024A
:104C700042730146164803F0B0FCECE763686B60D2
:104C80002C601D60656017E000246CB12146284649
:104C900003F065FC0028F1DC002CF6D00B4B1B6AFE
:104CA0009C42F1D02468F0E7084B1A6A03F11C011A
:104CB00029606A6015601D62044B9868A84214BFA1
:104CC00000200120FFF798FF38BD00BFB01700207B
:104CD000CC17002038B54FF02002EFF3118382F398
:104CE0001288BFF36F8F1D46144B9C68144B1B68D2
:104CF000A34217D0124B00221A60104B1B7C114AA2
:104D0000D35C53B12046FFF7D9FE30B1637B13F07B
:104D10001F0F0FD02046FFF717FF85F31188BFF351
:104D20006F8F38BD2046FFF70FFF85F31188BFF363
:104D30006F8FF6E72046FFF787FFEBE7B0170020FD
:104D4000D8170020DC170020427B90F90D30002B93
:104D500033DB70B5044612F01F0F01D1866906B12E
:104D600070BD62F07F024273144B53F81C5F9D428A
:104D700008D1354606E06B68636025601C606C6096
:104D800017E035466DB12946204603F0E8FB0028C0
:104D9000F1DC002DF6D0094B1B6A9D42F1D02D6845
:104DA000F0E7064B1A6A03F11C012160626014608F
:104DB0001C620020FFF720FFD2E77047B0170020E9
:104DC00010B54FF02003EFF3118483F31288BFF383
:104DD0006F8F437B13F0040F04D184F31188BFF36A
:104DE0006F8F10BD23F004034373FFF7ADFF21461F
:104DF0000148FFF7D1FEF4E7E817002010B504469C
:104E0000427B90F90D30002B08DB084B9868A042DC
:104E100014BF00200120FFF7EFFE10BD02F07F025B
:104E200042730146024803F0D8FBEEE7B0170020BA
:104E3000CC17002010B50C4611460A4882680A4B70
:104E40001A604FF02002EFF3118382F31288BFF350
:104E50006F8FDDE90223806803F086FC2046FCF7B3
:104E600015FC10BDB0170020D81700202DE9F8431D
:104E700005460F4600234FF02002EFF3118682F320
:104E80001288BFF36F8F184629E063686B602C604F
:104E90001D60656017E044466CB12146284603F06A
:104EA0005EFB0028F1DC002CF6D01D4B1B6A9C42F7
:104EB000F1D02468F0E71A4B1A6A03F11C0129604B
:104EC0006A6015601D620120FFF796FE012001E077
:104ED000AF73002086F31188BFF36F8F0123E3B90E
:104EE0006B7B13F01F0FF3D1D5F81880B8F1000FCA
:104EF000EED103F07F036B73DFF828902946484614
:104F000003F06BFBAF736B7B63F07F036B73D9F8BC
:104F100000404C45C0D14446BEE7BDE8F88300BF21
:104F2000B0170020CC17002038B50446183003F025
:104F3000AFFC00234FF02002EFF3118582F31288BB
:104F4000BFF36F8F10E0637B43F010036373114B6B
:104F50009868A04214BF00200120FFF74DFE85F3A2
:104F60001188BFF36F8F012363B9627B94F90D3011
:104F7000002BE8DA02F07F0262732146064803F054
:104F80002CFBE0E7034B9B68A34200D038BD03F045
:104F900018FBFBE7B0170020CC17002010B500234A
:104FA0004FF02002EFF3118482F31288BFF36F8F6A
:104FB0000CE0094B9A68D37B0133D3730020FFF7D1
:104FC0001BFE84F31188BFF36F8F0123002BF0D0F9
:104FD00003F0F7FA10BD00BFB0170020437B13F0B9
:104FE000080F2AD110B5044643F00802427323F09B
:104FF000200242F00802427312F0800F13D1A3681E
:1050000013B1204603F0F1FA04F1180003F040FC5C
:1050100004F1580003F068FB0120FFF7EDFD204686
:10502000FFF706FB10BD03F05F0343F00803437373
:105030000146024803F0D1FAE1E77047CC1700209F
:1050400008B5024803F0ECFB08BD00BFC8170020FC
:10505000F8B54FF02003EFF3118683F31288BFF306
:105060006F8F1D4CA1684B7B03F07F034B7304F1E2
:105070001C07384603F0B1FAA5686B7B63F07F0329
:105080006B73E469BC4208D1002406E063686B607E
:105090002C601D60656017E000246CB12146284635
:1050A00003F05DFA0028F1DC002CF6D00A4B1B6AF5
:1050B0009C42F1D02468F0E7074B1A6A03F11C0107
:1050C00029606A6015601D620120FFF795FD30467A
:1050D000FCF7DCFAF8BD00BFB01700202DE9F04165
:1050E00050EA010338D004460E466FF001031B1A44
:1050F0004FF0FF3262EB0102012B72F100022FDB55
:105100006FF001052D1A4FF02003EFF3118883F3A0
:105110001288BFF36F8F144FB868144B1860FFF7F5
:105120006DFEB868224633461149183000F0C6F8C3
:10513000BA68537B43F0100353734046FCF7A6FA5A
:1051400003F0DBFB281A63EB0303012873F1000370
:1051500000DA0020BDE8F081FFF77AFF0020F9E7D0
:1051600003F0CBFB0519CEE7B0170020D8170020BD
:10517000DD86000008B5B1F1FF3F08BFB0F1FF3F89
:1051800018D0FFF7ABFFC217510141EAD0614301CC
:105190001B1A61EB0201890041EA93719B001B1805
:1051A00042EB0102D20042EA5372C3F3103343EAE6
:1051B000424008BD034B9868FFF7B6FE4FF0FF3042
:1051C000F7E700BFB0170020014B9868704700BF99
:1051D000B017002070B54FF02003EFF3118583F373
:1051E0001288BFF36F8F2E46037B13F0010F09D196
:1051F0000446437B13F0080F0FD085F31188BFF3EB
:105200006F8F09E085F31188BFF36F8F404080F303
:1052100011884FF0040002DF70BDFFF7DFFE084B7E
:105220009B68A34204D086F31188BFF36F8FF3E726
:10523000EFF30583002BF6D12846FCF727FAF2E7B7
:10524000B017002008B50648064A121A064903F0AE
:10525000A0F8064A0649074803F09BF808BD00BFBE
:1052600000000020140B00207497000000000000D4
:105270007497000000000020034B1868984200D08B
:1052800070470020FCE700BF680A002030B1044AE4
:105290005268904201D0006870470020704700BFFC
:1052A000680A002008B5044B1B680BB1002008BD3C
:1052B000FEF7BCF9FBE700BFE8170020B3F1FF3FA2
:1052C00008BFB2F1FF3F74D02DE9F0470446924683
:1052D0001D46816000234FF02002EFF3118782F317
:1052E0001288BFF36F8F26E01AF1010845F100091B
:1052F000FFF7D8FF18EB000349EBE0702361606112
:105300003BE0521A66EB030302614361436863604A
:1053100020601C60446005E0264B5A682360626090
:1053200014605C60FFF7A8FF84423AD087F31188CD
:10533000BFF36F8F0123002B39D153466FF001016A
:10534000B1EB0A014FF0FF3060EB0502002ACBDB26
:10535000194A116852685B1842EB05026FF00101AF
:10536000C91A60EB020308461A46012973F10003CB
:1053700001DA0120002220616261FFF77DFF002831
:10538000CAD00269466921696369914273EB060ECE
:10539000B7DB891A63EB060321616361FFF776FFD0
:1053A000EDE703F058FA0021FEF704F9BEE7BDE887
:1053B000F0877047680A0020B00C002070B54FF0ED
:1053C0002003EFF3118683F31288BFF36F8F2B4B0B
:1053D0001860FFF751FF044624E0294A136851681A
:1053E0005B1941EBE5711360516000220023C4E9B1
:1053F0000423204603F018FA86F31188BFF36F8F59
:10540000A368204698474FF02003EFF3118683F3FB
:105410001288BFF36F8F194A13685B1B1360FFF785
:105420002BFF04463CB125696169144B1A68D317F8
:10543000AA428B41D1DA44B1236962690F490968F4
:105440005B1A62EBE172236162610D4A0B4D2868C1
:10545000136851681B1841EBE07113605160002420
:105460002C6003F0F8F92146FEF7A4F886F31188C2
:10547000BFF36F8FFFF72EFC70BD00BFE817002051
:10548000B00C002010B500224FF02003EFF3118480
:1054900083F31288BFF36F8F134611460CE0FFF7BA
:1054A00001FF074A13685168C31841EBE07184F3A8
:1054B0001188BFF36F8F0122002AF0D0184610BD6B
:1054C000B00C0020F8B54FF02002EFF3118382F307
:1054D0001288BFF36F8F1A461D46036823B182F30B
:1054E0001188BFF36F8FF8BD0446826AC36A52EA1F
:1054F000030105D0B3F1FF3F08BFB2F1FF3F29D14F
:10550000236B01332363236A7BB185F31188BFF3D7
:105510006F8F236A204698474FF02002EFF31183E4
:1055200082F31288BFF36F8F1D4604F11803A4693C
:10553000A3423FD0002C3DD0204603F01AF80023B0
:10554000C4F8AC3085F31188BFF36F8F204603F0A9
:105550007FF8C8E716461F46012A73F1000301DAF7
:1055600001260027013E47F1FF3703F0CAF9013059
:1055700041F10001801947EB0101012871F100019F
:1055800008DA6FF001024FF0FF330D492046FFF7B4
:1055900095FEB5E703F0B5F9013041F1000180193E
:1055A00047EB01036FF00102121A4FF0FF3161EB7C
:1055B0000303EAE785F31188BFF36F8F93E700BF1A
:1055C000C554000070B51D46B3F1FF3F08BFB2F1EE
:1055D000FF3F1AD00646144619466FF00102121B0F
:1055E0004FF0FF3262EB0302002A0FDB304603F07C
:1055F0004FF9DDE90423C6E90A2300233363224679
:105600002B4607493046FFF759FE70BD012C71F15A
:10561000000101DA01240025013C45F1FF35E5E7F1
:10562000C554000038B504460D4602F0C9FE48B91D
:10563000054B9B68D3F8A40018B12A46214603F015
:10564000B6F938BD0020FCE7B017002008B50248C5
:1056500000F078FD08BD00BFC495000010B5064CF1
:1056600005E0A2686168204603F0C3F91434034BD7
:105670009C42F6D3002010BDDE0A0020DE0A002086
:1056800038B50546002941D051F8043C0C1F002BC9
:10569000B8BFE41800F06CF91D4A136833B96360B1
:1056A00014602846BDE8384000F068B9A34208D924
:1056B000206821188B4201BF19685B6809182160B6
:1056C000EDE71A465B680BB1A342FAD9116850188E
:1056D000A0420BD120680144501883421160E0D1F0
:1056E00018685B68536008441060DAE702D90C233D
:1056F0002B60D6E7206821188B4204BF19685B68CD
:10570000636004BF091821605460CAE738BD00BF58
:10571000F0170020F8B5CD1C25F0030508350C2D39
:1057200038BF0C25002D064601DBA94203D90C2306
:1057300033600020F8BD00F01BF921490A681446C7
:105740009CB9204F3B6823B92146304600F03CF815
:1057500038602946304600F037F8431C23D10C232B
:105760003360304600F00AF9E3E723685B1B17D487
:105770000B2B03D923601C44256004E06368A2421C
:105780000CBF0B605360304600F0F8F804F10B00DA
:10579000231D20F00700C21A1CBF1B1AA350C9E723
:1057A00022466468CCE7C41C24F00304A042E3D082
:1057B000211A304600F008F80130DDD1CFE700BFF4
:1057C000F0170020EC17002038B5064D00230446E2
:1057D00008462B60FCF714FB431C02D12B6803B175
:1057E000236038BDF41700200EB430B59CB01FAC58
:1057F0004FF4017254F8045BADF814200290069047
:10580000FAF732FE0B4B039007900B930A48019472
:1058100000230F9314934FF6FF73ADF816302A460A
:10582000234602A9006800F0AFF81CB0BDE8304084
:1058300003B070471F8B0000700A0020242B2DE955
:10584000F0478646904601D8012B06D101F0DAFADE
:10585000162303600020BDE8F08736480D462A462F
:1058600015F8014B065D16F00806F8D12D2C24D151
:105870002C780126951C2BBB302C30D00A2306F146
:10588000004C0CF1FF3C0022BCFBF3F9104603FB7B
:1058900019CAA4F13007092F28D83C46A34234DDA9
:1058A000571C07D081452DD301D1A2452ADB00FB2F
:1058B0000340012215F8014BEBE72B2C04BF2C7899
:1058C000951CD8E7102BDAD1302CD8D12A7802F0E9
:1058D000DF02582AD3D16C7810230235CFE72B781A
:1058E00003F0DF03582BF6D00823C8E7A4F14107E3
:1058F000192F01D8373CD1E7A4F16107192F04D83B
:10590000573CCBE74FF0FF32D4E7531C08D122239A
:10591000CEF800306046B8F1000F9CD0691E06E05A
:1059200006B14042B8F1000F95D0002AF6D1C8F870
:10593000001090E75596000013460A4601460248BB
:105940000068FFF77BBF00BF700A002010B5074C4E
:10595000421E12F8013F03B910BDE15C01F00301E2
:10596000022908BF203B1370F3E700BF55960000E3
:10597000014801F03BBA00BFE00A0020014801F0F5
:105980003DBA00BFE00A00202DE9F0470C46ADF516
:10599000227D0021CDE94411A649A0910DF1040812
:1059A000A549A64FCDF818810646A191009313781A
:1059B000002B00F05A81F95C11F0080102F1010599
:1059C00019D06368002B0FDD23681A78BA5C1207C0
:1059D00001D42A46EBE7459A0132459262680133C9
:1059E000013A62602360ECE7A19B2146304698476C
:1059F0000028E9D0EDE7252B12D099466368002BEB
:105A000040F39380226813784B4540F02E81636801
:105A1000013B6360459B0132013322604593D8E727
:105A20004191439153782A2B02BF1023951C419337
:105A30000A22A94619F8011BA1F13003092B1ED92E
:105A4000DFF8FCA103225046FAF74AFB38B1419A2D
:105A5000A0EB0A0001238340134341934D4615F800
:105A6000013B782B06D8572B10D8252BC5D057D8FB
:105A7000002B65D0032347930A2342936BE0439B9B
:105A800002FB0311303943914D46D2E7A3F158028E
:105A9000202AEFD801A151F822F000BF8B5B000053
:105AA000755A0000755A0000AD5B0000755A000081
:105AB000755A0000755A0000755A0000755A0000AA
:105AC000755A0000755A0000C35B0000A95B000016
:105AD000275B0000275B0000275B0000755A000071
